{
  "contractName": "TokenFarm",
  "abi": [
    {
      "inputs": [
        {
          "internalType": "contract StellartToken",
          "name": "_stellartToken",
          "type": "address"
        },
        {
          "internalType": "contract JamToken",
          "name": "_jamToken",
          "type": "address"
        }
      ],
      "stateMutability": "nonpayable",
      "type": "constructor"
    },
    {
      "inputs": [
        {
          "internalType": "address",
          "name": "",
          "type": "address"
        }
      ],
      "name": "hasStaked",
      "outputs": [
        {
          "internalType": "bool",
          "name": "",
          "type": "bool"
        }
      ],
      "stateMutability": "view",
      "type": "function",
      "constant": true
    },
    {
      "inputs": [
        {
          "internalType": "address",
          "name": "",
          "type": "address"
        }
      ],
      "name": "isStaking",
      "outputs": [
        {
          "internalType": "bool",
          "name": "",
          "type": "bool"
        }
      ],
      "stateMutability": "view",
      "type": "function",
      "constant": true
    },
    {
      "inputs": [],
      "name": "jamToken",
      "outputs": [
        {
          "internalType": "contract JamToken",
          "name": "",
          "type": "address"
        }
      ],
      "stateMutability": "view",
      "type": "function",
      "constant": true
    },
    {
      "inputs": [],
      "name": "name",
      "outputs": [
        {
          "internalType": "string",
          "name": "",
          "type": "string"
        }
      ],
      "stateMutability": "view",
      "type": "function",
      "constant": true
    },
    {
      "inputs": [],
      "name": "owner",
      "outputs": [
        {
          "internalType": "address",
          "name": "",
          "type": "address"
        }
      ],
      "stateMutability": "view",
      "type": "function",
      "constant": true
    },
    {
      "inputs": [
        {
          "internalType": "uint256",
          "name": "",
          "type": "uint256"
        }
      ],
      "name": "stakers",
      "outputs": [
        {
          "internalType": "address",
          "name": "",
          "type": "address"
        }
      ],
      "stateMutability": "view",
      "type": "function",
      "constant": true
    },
    {
      "inputs": [
        {
          "internalType": "address",
          "name": "",
          "type": "address"
        }
      ],
      "name": "stakingBalance",
      "outputs": [
        {
          "internalType": "uint256",
          "name": "",
          "type": "uint256"
        }
      ],
      "stateMutability": "view",
      "type": "function",
      "constant": true
    },
    {
      "inputs": [],
      "name": "stellartToken",
      "outputs": [
        {
          "internalType": "contract StellartToken",
          "name": "",
          "type": "address"
        }
      ],
      "stateMutability": "view",
      "type": "function",
      "constant": true
    },
    {
      "inputs": [
        {
          "internalType": "uint256",
          "name": "_amount",
          "type": "uint256"
        }
      ],
      "name": "stakeTokens",
      "outputs": [],
      "stateMutability": "nonpayable",
      "type": "function"
    },
    {
      "inputs": [],
      "name": "unstakeTokens",
      "outputs": [],
      "stateMutability": "nonpayable",
      "type": "function"
    },
    {
      "inputs": [],
      "name": "issueTokens",
      "outputs": [],
      "stateMutability": "nonpayable",
      "type": "function"
    }
  ],
  "bytecode": "0x60c0604052601360809081527f5374656c6c61727420546f6b656e204661726d0000000000000000000000000060a05260009061003c9082610143565b5034801561004957600080fd5b50604051610a32380380610a328339810160408190526100689161021a565b600180546001600160a01b03199081163317909155600380546001600160a01b0394851690831617905560028054929093169116179055610254565b634e487b7160e01b600052604160045260246000fd5b600181811c908216806100ce57607f821691505b6020821081036100ee57634e487b7160e01b600052602260045260246000fd5b50919050565b601f82111561013e57600081815260208120601f850160051c8101602086101561011b5750805b601f850160051c820191505b8181101561013a57828155600101610127565b5050505b505050565b81516001600160401b0381111561015c5761015c6100a4565b6101708161016a84546100ba565b846100f4565b602080601f8311600181146101a5576000841561018d5750858301515b600019600386901b1c1916600185901b17855561013a565b600085815260208120601f198616915b828110156101d4578886015182559484019460019091019084016101b5565b50858210156101f25787850151600019600388901b60f8161c191681555b5050505050600190811b01905550565b6001600160a01b038116811461021757600080fd5b50565b6000806040838503121561022d57600080fd5b825161023881610202565b602084015190925061024981610202565b809150509250929050565b6107cf806102636000396000f3fe608060405234801561001057600080fd5b50600436106100a95760003560e01c80638da5cb5b116100715780638da5cb5b1461014a57806392773cdd14610175578063a5ce413b14610188578063c93c8f3414610190578063f416d760146101b3578063fd5e6dd1146101c657600080fd5b806306fdde03146100ae57806345bc78ab146100cc57806360ab5852146100fa5780636f49712b146101045780637547c7a314610137575b600080fd5b6100b66101d9565b6040516100c39190610648565b60405180910390f35b6100ec6100da366004610696565b60056020526000908152604090205481565b6040519081526020016100c3565b610102610267565b005b610127610112366004610696565b60076020526000908152604090205460ff1681565b60405190151581526020016100c3565b6101026101453660046106c6565b61039a565b60015461015d906001600160a01b031681565b6040516001600160a01b0390911681526020016100c3565b60035461015d906001600160a01b031681565b610102610524565b61012761019e366004610696565b60066020526000908152604090205460ff1681565b60025461015d906001600160a01b031681565b61015d6101d43660046106c6565b61061e565b600080546101e6906106df565b80601f0160208091040260200160405190810160405280929190818152602001828054610212906106df565b801561025f5780601f106102345761010080835404028352916020019161025f565b820191906000526020600020905b81548152906001019060200180831161024257829003601f168201915b505050505081565b6001546001600160a01b031633146102b95760405162461bcd60e51b815260206004820152601060248201526f27379032b932b99032b61037bbb732b960811b60448201526064015b60405180910390fd5b60005b600454811015610397576000600482815481106102db576102db610719565b60009182526020808320909101546001600160a01b0316808352600590915260409091205490915080156103825760035460405163a9059cbb60e01b81526001600160a01b038481166004830152602482018490529091169063a9059cbb906044016020604051808303816000875af115801561035c573d6000803e3d6000fd5b505050506040513d601f19601f82011682018060405250810190610380919061072f565b505b5050808061038f90610767565b9150506102bc565b50565b600081116103f55760405162461bcd60e51b815260206004820152602260248201527f4c612063616e7469646164206e6f20707565646520736572206d656e6f722061604482015261020360f41b60648201526084016102b0565b6002546040516323b872dd60e01b8152336004820152306024820152604481018390526001600160a01b03909116906323b872dd906064016020604051808303816000875af115801561044c573d6000803e3d6000fd5b505050506040513d601f19601f82011682018060405250810190610470919061072f565b503360009081526005602052604081208054839290610490908490610780565b90915550503360009081526006602052604090205460ff166104ef57600480546001810182556000919091527f8a35acfbc15ff81a39ae7d344fd709f28e8600b4aa8c65c6b64bfe7fe36bd19b0180546001600160a01b031916331790555b503360009081526007602090815260408083208054600160ff1991821681179092556006909352922080549091169091179055565b33600090815260056020526040902054806105815760405162461bcd60e51b815260206004820152601b60248201527f456c2062616c616e63652064656c207374616b696e672065732030000000000060448201526064016102b0565b60025460405163a9059cbb60e01b8152336004820152602481018390526001600160a01b039091169063a9059cbb906044016020604051808303816000875af11580156105d2573d6000803e3d6000fd5b505050506040513d601f19601f820116820180604052508101906105f6919061072f565b505033600090815260056020908152604080832083905560079091529020805460ff19169055565b6004818154811061062e57600080fd5b6000918252602090912001546001600160a01b0316905081565b600060208083528351808285015260005b8181101561067557858101830151858201604001528201610659565b506000604082860101526040601f19601f8301168501019250505092915050565b6000602082840312156106a857600080fd5b81356001600160a01b03811681146106bf57600080fd5b9392505050565b6000602082840312156106d857600080fd5b5035919050565b600181811c908216806106f357607f821691505b60208210810361071357634e487b7160e01b600052602260045260246000fd5b50919050565b634e487b7160e01b600052603260045260246000fd5b60006020828403121561074157600080fd5b815180151581146106bf57600080fd5b634e487b7160e01b600052601160045260246000fd5b60006001820161077957610779610751565b5060010190565b8082018082111561079357610793610751565b9291505056fea264697066735822122026efcbbfc29a2586f2e4d02913e176bf7887074a6495e5025c6cd0edbb2e38b464736f6c63430008110033",
  "immutableReferences": {},
  "source": "// SPDX-License-Identifier: MIT\r\npragma solidity ^0.8.17;\r\n\r\nimport \"./JamToken.sol\";\r\nimport \"./StellartToken.sol\";\r\n\r\n// Owner : 0x5B38Da6a701c568545dCfcB03FcB875f56beddC4\r\n// Usuario : 0xAb8483F64d9C6d1EcF9b849Ae677dD3315835cb2\r\n\r\ncontract TokenFarm {\r\n\r\n    // Declaraciones iniciales\r\n    string public name = \"Stellart Token Farm\";\r\n    address public owner;\r\n    JamToken public jamToken;\r\n    StellartToken public stellartToken;\r\n\r\n    // Estructura de datos\r\n    address [] public stakers;\r\n    mapping(address => uint256) public stakingBalance;\r\n    mapping(address => bool) public hasStaked;\r\n    mapping(address => bool) public isStaking;\r\n\r\n    // Constructor\r\n    constructor(StellartToken _stellartToken, JamToken _jamToken) {\r\n        owner = msg.sender;\r\n        stellartToken = _stellartToken;\r\n        jamToken = _jamToken;\r\n    }\r\n\r\n    // Stake de tokens\r\n    function stakeTokens(uint _amount) public {\r\n        // Se requiere una cantidad superior a 0\r\n        require(_amount > 0, \"La cantidad no puede ser menor a 0\");\r\n        // Transferir tokens JAM al Smart Contract principal\r\n        jamToken.transferFrom(msg.sender, address(this), _amount);\r\n        // Actualizar el saldo del staking;\r\n        stakingBalance[msg.sender] += _amount;\r\n        // Guardar el usuario\r\n        if (!hasStaked[msg.sender]) {\r\n            stakers.push(msg.sender);\r\n        }\r\n\r\n        // Actualizar el estado del staking\r\n        isStaking[msg.sender] = true;\r\n        hasStaked[msg.sender] = true;\r\n    }\r\n\r\n    // Quitar el staking de los tokens\r\n    function unstakeTokens() public {\r\n        // Saldo del staking de un usuario\r\n        uint balance = stakingBalance[msg.sender];\r\n        // Se requiere una cantidad superior a 0\r\n        require(balance > 0, \"El balance del staking es 0\");\r\n        // Transferencia de los tokens al usuario\r\n        jamToken.transfer(msg.sender, balance);\r\n        // Resetea el balance de staking del usuario\r\n        stakingBalance[msg.sender] = 0;\r\n        // Actualizar el estado del staking\r\n        isStaking[msg.sender] = false;\r\n    }\r\n\r\n    // Emision de Tokens (recompensas)\r\n    function issueTokens() public {\r\n        // Unicamente ejecutable por el owner\r\n        require(msg.sender == owner, \"No eres el owner\");\r\n        // Emitir tokens a todos los stakers\r\n        for(uint i = 0; i < stakers.length; i++ ) {\r\n            address recipient = stakers[i];\r\n            uint balance = stakingBalance[recipient];\r\n            if (balance > 0) {\r\n                stellartToken.transfer(recipient, balance);\r\n            }\r\n\r\n        }\r\n    }\r\n\r\n\r\n\r\n\r\n}",
  "sourcePath": "C:\\Users\\Admin\\Desktop\\Work\\blockchain\\DApp\\DApp-truffle\\contracts\\TokenFarm.sol",
  "compiler": {
    "name": "solc",
    "version": "0.8.17+commit.8df45f5f.Emscripten.clang"
  },
  "schemaVersion": "3.4.16",
  "updatedAt": "2025-09-03T01:32:25.689Z",
  "networkType": "ethereum",
  "devdoc": {
    "kind": "dev",
    "methods": {},
    "version": 1
  },
  "userdoc": {
    "kind": "user",
    "methods": {},
    "version": 1
  }
}